{
  "contractName": "Main",
  "abi": [
    {
      "inputs": [],
      "stateMutability": "nonpayable",
      "type": "constructor"
    },
    {
      "anonymous": false,
      "inputs": [
        {
          "indexed": true,
          "internalType": "bytes32",
          "name": "role",
          "type": "bytes32"
        },
        {
          "indexed": true,
          "internalType": "bytes32",
          "name": "previousAdminRole",
          "type": "bytes32"
        },
        {
          "indexed": true,
          "internalType": "bytes32",
          "name": "newAdminRole",
          "type": "bytes32"
        }
      ],
      "name": "RoleAdminChanged",
      "type": "event"
    },
    {
      "anonymous": false,
      "inputs": [
        {
          "indexed": true,
          "internalType": "bytes32",
          "name": "role",
          "type": "bytes32"
        },
        {
          "indexed": true,
          "internalType": "address",
          "name": "account",
          "type": "address"
        },
        {
          "indexed": true,
          "internalType": "address",
          "name": "sender",
          "type": "address"
        }
      ],
      "name": "RoleGranted",
      "type": "event"
    },
    {
      "anonymous": false,
      "inputs": [
        {
          "indexed": true,
          "internalType": "bytes32",
          "name": "role",
          "type": "bytes32"
        },
        {
          "indexed": true,
          "internalType": "address",
          "name": "account",
          "type": "address"
        },
        {
          "indexed": true,
          "internalType": "address",
          "name": "sender",
          "type": "address"
        }
      ],
      "name": "RoleRevoked",
      "type": "event"
    },
    {
      "inputs": [],
      "name": "DEFAULT_ADMIN_ROLE",
      "outputs": [
        {
          "internalType": "bytes32",
          "name": "",
          "type": "bytes32"
        }
      ],
      "stateMutability": "view",
      "type": "function"
    },
    {
      "inputs": [
        {
          "internalType": "uint256",
          "name": "",
          "type": "uint256"
        }
      ],
      "name": "commodities",
      "outputs": [
        {
          "internalType": "string",
          "name": "name",
          "type": "string"
        },
        {
          "internalType": "uint256",
          "name": "produce_time",
          "type": "uint256"
        },
        {
          "internalType": "string",
          "name": "describe",
          "type": "string"
        }
      ],
      "stateMutability": "view",
      "type": "function"
    },
    {
      "inputs": [],
      "name": "counter",
      "outputs": [
        {
          "internalType": "uint256",
          "name": "_value",
          "type": "uint256"
        }
      ],
      "stateMutability": "view",
      "type": "function"
    },
    {
      "inputs": [
        {
          "internalType": "bytes32",
          "name": "role",
          "type": "bytes32"
        }
      ],
      "name": "getRoleAdmin",
      "outputs": [
        {
          "internalType": "bytes32",
          "name": "",
          "type": "bytes32"
        }
      ],
      "stateMutability": "view",
      "type": "function"
    },
    {
      "inputs": [
        {
          "internalType": "bytes32",
          "name": "role",
          "type": "bytes32"
        },
        {
          "internalType": "uint256",
          "name": "index",
          "type": "uint256"
        }
      ],
      "name": "getRoleMember",
      "outputs": [
        {
          "internalType": "address",
          "name": "",
          "type": "address"
        }
      ],
      "stateMutability": "view",
      "type": "function"
    },
    {
      "inputs": [
        {
          "internalType": "bytes32",
          "name": "role",
          "type": "bytes32"
        }
      ],
      "name": "getRoleMemberCount",
      "outputs": [
        {
          "internalType": "uint256",
          "name": "",
          "type": "uint256"
        }
      ],
      "stateMutability": "view",
      "type": "function"
    },
    {
      "inputs": [
        {
          "internalType": "bytes32",
          "name": "role",
          "type": "bytes32"
        },
        {
          "internalType": "address",
          "name": "account",
          "type": "address"
        }
      ],
      "name": "grantRole",
      "outputs": [],
      "stateMutability": "nonpayable",
      "type": "function"
    },
    {
      "inputs": [
        {
          "internalType": "bytes32",
          "name": "role",
          "type": "bytes32"
        },
        {
          "internalType": "address",
          "name": "account",
          "type": "address"
        }
      ],
      "name": "hasRole",
      "outputs": [
        {
          "internalType": "bool",
          "name": "",
          "type": "bool"
        }
      ],
      "stateMutability": "view",
      "type": "function"
    },
    {
      "inputs": [
        {
          "internalType": "bytes32",
          "name": "role",
          "type": "bytes32"
        },
        {
          "internalType": "address",
          "name": "account",
          "type": "address"
        }
      ],
      "name": "renounceRole",
      "outputs": [],
      "stateMutability": "nonpayable",
      "type": "function"
    },
    {
      "inputs": [
        {
          "internalType": "bytes32",
          "name": "role",
          "type": "bytes32"
        },
        {
          "internalType": "address",
          "name": "account",
          "type": "address"
        }
      ],
      "name": "revokeRole",
      "outputs": [],
      "stateMutability": "nonpayable",
      "type": "function"
    },
    {
      "inputs": [
        {
          "internalType": "bytes4",
          "name": "interfaceId",
          "type": "bytes4"
        }
      ],
      "name": "supportsInterface",
      "outputs": [
        {
          "internalType": "bool",
          "name": "",
          "type": "bool"
        }
      ],
      "stateMutability": "view",
      "type": "function"
    },
    {
      "inputs": [
        {
          "internalType": "address",
          "name": "",
          "type": "address"
        }
      ],
      "name": "users",
      "outputs": [
        {
          "internalType": "string",
          "name": "name",
          "type": "string"
        },
        {
          "internalType": "string",
          "name": "describe",
          "type": "string"
        }
      ],
      "stateMutability": "view",
      "type": "function"
    },
    {
      "inputs": [
        {
          "internalType": "address",
          "name": "target",
          "type": "address"
        }
      ],
      "name": "setDeliver",
      "outputs": [],
      "stateMutability": "nonpayable",
      "type": "function"
    },
    {
      "inputs": [
        {
          "internalType": "address",
          "name": "target",
          "type": "address"
        }
      ],
      "name": "setSellor",
      "outputs": [],
      "stateMutability": "nonpayable",
      "type": "function"
    },
    {
      "inputs": [
        {
          "internalType": "address",
          "name": "target",
          "type": "address"
        }
      ],
      "name": "setProducer",
      "outputs": [],
      "stateMutability": "nonpayable",
      "type": "function"
    },
    {
      "inputs": [
        {
          "internalType": "string",
          "name": "_name",
          "type": "string"
        },
        {
          "internalType": "string",
          "name": "_describe",
          "type": "string"
        }
      ],
      "name": "register",
      "outputs": [
        {
          "internalType": "address",
          "name": "",
          "type": "address"
        }
      ],
      "stateMutability": "nonpayable",
      "type": "function"
    },
    {
      "inputs": [
        {
          "internalType": "string",
          "name": "name",
          "type": "string"
        },
        {
          "internalType": "string",
          "name": "describe",
          "type": "string"
        },
        {
          "internalType": "string",
          "name": "loc",
          "type": "string"
        },
        {
          "internalType": "string",
          "name": "ev",
          "type": "string"
        }
      ],
      "name": "produce",
      "outputs": [
        {
          "internalType": "uint256",
          "name": "",
          "type": "uint256"
        }
      ],
      "stateMutability": "nonpayable",
      "type": "function"
    },
    {
      "inputs": [
        {
          "internalType": "uint256",
          "name": "id",
          "type": "uint256"
        },
        {
          "internalType": "string",
          "name": "location",
          "type": "string"
        },
        {
          "internalType": "string",
          "name": "ev",
          "type": "string"
        }
      ],
      "name": "deliver",
      "outputs": [],
      "stateMutability": "nonpayable",
      "type": "function"
    },
    {
      "inputs": [
        {
          "internalType": "uint256",
          "name": "id",
          "type": "uint256"
        },
        {
          "internalType": "string",
          "name": "loc",
          "type": "string"
        },
        {
          "internalType": "string",
          "name": "ev",
          "type": "string"
        }
      ],
      "name": "sell",
      "outputs": [],
      "stateMutability": "nonpayable",
      "type": "function"
    },
    {
      "inputs": [
        {
          "internalType": "uint256",
          "name": "id",
          "type": "uint256"
        }
      ],
      "name": "getCommodity",
      "outputs": [
        {
          "components": [
            {
              "internalType": "string",
              "name": "name",
              "type": "string"
            },
            {
              "internalType": "uint256",
              "name": "produce_time",
              "type": "uint256"
            },
            {
              "internalType": "string",
              "name": "describe",
              "type": "string"
            },
            {
              "components": [
                {
                  "internalType": "uint256",
                  "name": "time",
                  "type": "uint256"
                },
                {
                  "internalType": "string",
                  "name": "location",
                  "type": "string"
                },
                {
                  "internalType": "string",
                  "name": "ev",
                  "type": "string"
                }
              ],
              "internalType": "struct Main.Action[]",
              "name": "deliver_chain",
              "type": "tuple[]"
            }
          ],
          "internalType": "struct Main.Commodity",
          "name": "",
          "type": "tuple"
        }
      ],
      "stateMutability": "view",
      "type": "function"
    },
    {
      "inputs": [
        {
          "internalType": "uint256",
          "name": "id",
          "type": "uint256"
        }
      ],
      "name": "getDeliverChain",
      "outputs": [
        {
          "components": [
            {
              "internalType": "uint256",
              "name": "time",
              "type": "uint256"
            },
            {
              "internalType": "string",
              "name": "location",
              "type": "string"
            },
            {
              "internalType": "string",
              "name": "ev",
              "type": "string"
            }
          ],
          "internalType": "struct Main.Action[]",
          "name": "",
          "type": "tuple[]"
        }
      ],
      "stateMutability": "view",
      "type": "function"
    }
  ],
  "bytecode": "0x60806040523480156200001157600080fd5b50620000276000801b336200002d60201b60201c565b620002c3565b6200004482826200007560201b620011f81760201c565b6200007081600160008581526020019081526020016000206200008b60201b620012061790919060201c565b505050565b620000878282620000c360201b60201c565b5050565b6000620000bb836000018373ffffffffffffffffffffffffffffffffffffffff1660001b620001b460201b60201c565b905092915050565b620000d582826200022e60201b60201c565b620001b057600160008084815260200190815260200160002060000160008373ffffffffffffffffffffffffffffffffffffffff1673ffffffffffffffffffffffffffffffffffffffff16815260200190815260200160002060006101000a81548160ff021916908315150217905550620001556200029860201b60201c565b73ffffffffffffffffffffffffffffffffffffffff168173ffffffffffffffffffffffffffffffffffffffff16837f2f8788117e7eff1d82e926ec794901d17c78024a50270940304540a733656f0d60405160405180910390a45b5050565b6000620001c88383620002a060201b60201c565b6200022357826000018290806001815401808255809150506001900390600052602060002001600090919091909150558260000180549050836001016000848152602001908152602001600020819055506001905062000228565b600090505b92915050565b600080600084815260200190815260200160002060000160008373ffffffffffffffffffffffffffffffffffffffff1673ffffffffffffffffffffffffffffffffffffffff16815260200190815260200160002060009054906101000a900460ff16905092915050565b600033905090565b600080836001016000848152602001908152602001600020541415905092915050565b612a7480620002d36000396000f3fe608060405234801561001057600080fd5b50600436106101375760003560e01c806353169323116100b8578063a87430ba1161007c578063a87430ba14610384578063ca15c873146103b5578063d547741f146103e5578063eb12be9c14610401578063f10fc8c61461041d578063fcfd84e21461043957610137565b806353169323146102cc57806361bc221a146102e85780639010d07c1461030657806391d1485414610336578063a217fddf1461036657610137565b80632f6d28c1116100ff5780632f6d28c11461020457806335178b961461023457806336568abe146102645780633ffbd47f1461028057806340c8cfee146102b057610137565b806301ffc9a71461013c578063248a9ca31461016c5780632b38bafc1461019c5780632f2ff15d146101b85780632f63f34f146101d4575b600080fd5b61015660048036038101906101519190611ebf565b61046b565b6040516101639190612510565b60405180910390f35b61018660048036038101906101819190611e1e565b6104e5565b604051610193919061252b565b60405180910390f35b6101b660048036038101906101b19190611df5565b610504565b005b6101d260048036038101906101cd9190611e47565b610547565b005b6101ee60048036038101906101e99190612017565b61057b565b6040516101fb9190612624565b60405180910390f35b61021e60048036038101906102199190612017565b610863565b60405161022b91906124ee565b60405180910390f35b61024e60048036038101906102499190611f54565b610a06565b60405161025b9190612646565b60405180910390f35b61027e60048036038101906102799190611e47565b610b46565b005b61029a60048036038101906102959190611ee8565b610b7a565b6040516102a791906124d3565b60405180910390f35b6102ca60048036038101906102c59190611df5565b610c33565b005b6102e660048036038101906102e19190611df5565b610c76565b005b6102f0610cb9565b6040516102fd9190612646565b60405180910390f35b610320600480360381019061031b9190611e83565b610cc5565b60405161032d91906124d3565b60405180910390f35b610350600480360381019061034b9190611e47565b610cf4565b60405161035d9190612510565b60405180910390f35b61036e610d5e565b60405161037b919061252b565b60405180910390f35b61039e60048036038101906103999190611df5565b610d65565b6040516103ac929190612568565b60405180910390f35b6103cf60048036038101906103ca9190611e1e565b610e99565b6040516103dc9190612646565b60405180910390f35b6103ff60048036038101906103fa9190611e47565b610ebd565b005b61041b60048036038101906104169190612040565b610ef1565b005b61043760048036038101906104329190612040565b610fda565b005b610453600480360381019061044e9190612017565b6110be565b6040516104629392919061259f565b60405180910390f35b60007f5a05180f000000000000000000000000000000000000000000000000000000007bffffffffffffffffffffffffffffffffffffffffffffffffffffffff1916827bffffffffffffffffffffffffffffffffffffffffffffffffffffffff191614806104de57506104dd82611236565b5b9050919050565b6000806000838152602001908152602001600020600101549050919050565b6000801b610519816105146112b0565b6112b8565b6105437fa26228957b4ff1ee8d2f4555d58f130924b7939446a6af38afd42a510a51fbb483610547565b5050565b6105518282611355565b610576816001600085815260200190815260200160002061120690919063ffffffff16565b505050565b610583611c4d565b600360008381526020019081526020016000206040518060800160405290816000820180546105b190612912565b80601f01602080910402602001604051908101604052809291908181526020018280546105dd90612912565b801561062a5780601f106105ff5761010080835404028352916020019161062a565b820191906000526020600020905b81548152906001019060200180831161060d57829003601f168201915b505050505081526020016001820154815260200160028201805461064d90612912565b80601f016020809104026020016040519081016040528092919081815260200182805461067990612912565b80156106c65780601f1061069b576101008083540402835291602001916106c6565b820191906000526020600020905b8154815290600101906020018083116106a957829003601f168201915b5050505050815260200160038201805480602002602001604051908101604052809291908181526020016000905b8282101561085457838290600052602060002090600302016040518060600160405290816000820154815260200160018201805461073190612912565b80601f016020809104026020016040519081016040528092919081815260200182805461075d90612912565b80156107aa5780601f1061077f576101008083540402835291602001916107aa565b820191906000526020600020905b81548152906001019060200180831161078d57829003601f168201915b505050505081526020016002820180546107c390612912565b80601f01602080910402602001604051908101604052809291908181526020018280546107ef90612912565b801561083c5780601f106108115761010080835404028352916020019161083c565b820191906000526020600020905b81548152906001019060200180831161081f57829003601f168201915b505050505081525050815260200190600101906106f4565b50505050815250509050919050565b606060036000838152602001908152602001600020600301805480602002602001604051908101604052809291908181526020016000905b828210156109fb5783829060005260206000209060030201604051806060016040529081600082015481526020016001820180546108d890612912565b80601f016020809104026020016040519081016040528092919081815260200182805461090490612912565b80156109515780601f1061092657610100808354040283529160200191610951565b820191906000526020600020905b81548152906001019060200180831161093457829003601f168201915b5050505050815260200160028201805461096a90612912565b80601f016020809104026020016040519081016040528092919081815260200182805461099690612912565b80156109e35780601f106109b8576101008083540402835291602001916109e3565b820191906000526020600020905b8154815290600101906020018083116109c657829003601f168201915b5050505050815250508152602001906001019061089b565b505050509050919050565b60007fa26228957b4ff1ee8d2f4555d58f130924b7939446a6af38afd42a510a51fbb4610a3a81610a356112b0565b6112b8565b6000610a46600461137e565b9050600060036000838152602001908152602001600020905087816000019080519060200190610a77929190611c75565b5042816001018190555086816002019080519060200190610a99929190611c75565b506000816003019050806040518060600160405280428152602001898152602001888152509080600181540180825580915050600190039060005260206000209060030201600090919091909150600082015181600001556020820151816001019080519060200190610b0d929190611c75565b506040820151816002019080519060200190610b2a929190611c75565b505050610b37600461138c565b82945050505050949350505050565b610b5082826113a2565b610b75816001600085815260200190815260200160002061142590919063ffffffff16565b505050565b600082600260003373ffffffffffffffffffffffffffffffffffffffff1673ffffffffffffffffffffffffffffffffffffffff1681526020019081526020016000206000019080519060200190610bd2929190611c75565b5081600260003373ffffffffffffffffffffffffffffffffffffffff1673ffffffffffffffffffffffffffffffffffffffff1681526020019081526020016000206001019080519060200190610c29929190611c75565b5033905092915050565b6000801b610c4881610c436112b0565b6112b8565b610c727f07440d959ac4d642cef9f21d2b26dcb48906afabe6d00cd411f69940bfc1db2183610547565b5050565b6000801b610c8b81610c866112b0565b6112b8565b610cb57fd0224718268e61b07e9f4cc598a9563984f0a026b8e2f81da878a8dded7109eb83610547565b5050565b60048060000154905081565b6000610cec826001600086815260200190815260200160002061145590919063ffffffff16565b905092915050565b600080600084815260200190815260200160002060000160008373ffffffffffffffffffffffffffffffffffffffff1673ffffffffffffffffffffffffffffffffffffffff16815260200190815260200160002060009054906101000a900460ff16905092915050565b6000801b81565b6002602052806000526040600020600091509050806000018054610d8890612912565b80601f0160208091040260200160405190810160405280929190818152602001828054610db490612912565b8015610e015780601f10610dd657610100808354040283529160200191610e01565b820191906000526020600020905b815481529060010190602001808311610de457829003601f168201915b505050505090806001018054610e1690612912565b80601f0160208091040260200160405190810160405280929190818152602001828054610e4290612912565b8015610e8f5780601f10610e6457610100808354040283529160200191610e8f565b820191906000526020600020905b815481529060010190602001808311610e7257829003601f168201915b5050505050905082565b6000610eb66001600084815260200190815260200160002061146f565b9050919050565b610ec78282611484565b610eec816001600085815260200190815260200160002061142590919063ffffffff16565b505050565b7f07440d959ac4d642cef9f21d2b26dcb48906afabe6d00cd411f69940bfc1db21610f2381610f1e6112b0565b6112b8565b610f2b611cfb565b42816000018181525050838160200181905250828160400181905250600060036000878152602001908152602001600020905080600301829080600181540180825580915050600190039060005260206000209060030201600090919091909150600082015181600001556020820151816001019080519060200190610fb2929190611c75565b506040820151816002019080519060200190610fcf929190611c75565b505050505050505050565b7fd0224718268e61b07e9f4cc598a9563984f0a026b8e2f81da878a8dded7109eb61100c816110076112b0565b6112b8565b60006003600086815260200190815260200160002090506000604051806060016040528042815260200186815260200185815250905081600301819080600181540180825580915050600190039060005260206000209060030201600090919091909150600082015181600001556020820151816001019080519060200190611096929190611c75565b5060408201518160020190805190602001906110b3929190611c75565b505050505050505050565b60036020528060005260406000206000915090508060000180546110e190612912565b80601f016020809104026020016040519081016040528092919081815260200182805461110d90612912565b801561115a5780601f1061112f5761010080835404028352916020019161115a565b820191906000526020600020905b81548152906001019060200180831161113d57829003601f168201915b50505050509080600101549080600201805461117590612912565b80601f01602080910402602001604051908101604052809291908181526020018280546111a190612912565b80156111ee5780601f106111c3576101008083540402835291602001916111ee565b820191906000526020600020905b8154815290600101906020018083116111d157829003601f168201915b5050505050905083565b61120282826114ad565b5050565b600061122e836000018373ffffffffffffffffffffffffffffffffffffffff1660001b61158d565b905092915050565b60007f7965db0b000000000000000000000000000000000000000000000000000000007bffffffffffffffffffffffffffffffffffffffffffffffffffffffff1916827bffffffffffffffffffffffffffffffffffffffffffffffffffffffff191614806112a957506112a8826115fd565b5b9050919050565b600033905090565b6112c28282610cf4565b611351576112e78173ffffffffffffffffffffffffffffffffffffffff166014611667565b6112f58360001c6020611667565b604051602001611306929190612499565b6040516020818303038152906040526040517f08c379a00000000000000000000000000000000000000000000000000000000081526004016113489190612546565b60405180910390fd5b5050565b61135e826104e5565b61136f8161136a6112b0565b6112b8565b61137983836114ad565b505050565b600081600001549050919050565b6001816000016000828254019250508190555050565b6113aa6112b0565b73ffffffffffffffffffffffffffffffffffffffff168173ffffffffffffffffffffffffffffffffffffffff1614611417576040517f08c379a000000000000000000000000000000000000000000000000000000000815260040161140e90612604565b60405180910390fd5b6114218282611961565b5050565b600061144d836000018373ffffffffffffffffffffffffffffffffffffffff1660001b611a42565b905092915050565b60006114648360000183611bc8565b60001c905092915050565b600061147d82600001611c19565b9050919050565b61148d826104e5565b61149e816114996112b0565b6112b8565b6114a88383611961565b505050565b6114b78282610cf4565b61158957600160008084815260200190815260200160002060000160008373ffffffffffffffffffffffffffffffffffffffff1673ffffffffffffffffffffffffffffffffffffffff16815260200190815260200160002060006101000a81548160ff02191690831515021790555061152e6112b0565b73ffffffffffffffffffffffffffffffffffffffff168173ffffffffffffffffffffffffffffffffffffffff16837f2f8788117e7eff1d82e926ec794901d17c78024a50270940304540a733656f0d60405160405180910390a45b5050565b60006115998383611c2a565b6115f25782600001829080600181540180825580915050600190039060005260206000200160009091909190915055826000018054905083600101600084815260200190815260200160002081905550600190506115f7565b600090505b92915050565b60007f01ffc9a7000000000000000000000000000000000000000000000000000000007bffffffffffffffffffffffffffffffffffffffffffffffffffffffff1916827bffffffffffffffffffffffffffffffffffffffffffffffffffffffff1916149050919050565b60606000600283600261167a919061279a565b6116849190612744565b67ffffffffffffffff8111156116c3577f4e487b7100000000000000000000000000000000000000000000000000000000600052604160045260246000fd5b6040519080825280601f01601f1916602001820160405280156116f55781602001600182028036833780820191505090505b5090507f300000000000000000000000000000000000000000000000000000000000000081600081518110611753577f4e487b7100000000000000000000000000000000000000000000000000000000600052603260045260246000fd5b60200101907effffffffffffffffffffffffffffffffffffffffffffffffffffffffffffff1916908160001a9053507f7800000000000000000000000000000000000000000000000000000000000000816001815181106117dd577f4e487b7100000000000000000000000000000000000000000000000000000000600052603260045260246000fd5b60200101907effffffffffffffffffffffffffffffffffffffffffffffffffffffffffffff1916908160001a9053506000600184600261181d919061279a565b6118279190612744565b90505b6001811115611913577f3031323334353637383961626364656600000000000000000000000000000000600f86166010811061188f577f4e487b7100000000000000000000000000000000000000000000000000000000600052603260045260246000fd5b1a60f81b8282815181106118cc577f4e487b7100000000000000000000000000000000000000000000000000000000600052603260045260246000fd5b60200101907effffffffffffffffffffffffffffffffffffffffffffffffffffffffffffff1916908160001a905350600485901c94508061190c906128e8565b905061182a565b5060008414611957576040517f08c379a000000000000000000000000000000000000000000000000000000000815260040161194e906125e4565b60405180910390fd5b8091505092915050565b61196b8282610cf4565b15611a3e57600080600084815260200190815260200160002060000160008373ffffffffffffffffffffffffffffffffffffffff1673ffffffffffffffffffffffffffffffffffffffff16815260200190815260200160002060006101000a81548160ff0219169083151502179055506119e36112b0565b73ffffffffffffffffffffffffffffffffffffffff168173ffffffffffffffffffffffffffffffffffffffff16837ff6391f5c32d9c69d2a47ea670b442974b53935d1edc7fd64eb21e047a839171b60405160405180910390a45b5050565b60008083600101600084815260200190815260200160002054905060008114611bbc576000600182611a7491906127f4565b9050600060018660000180549050611a8c91906127f4565b9050818114611b47576000866000018281548110611ad3577f4e487b7100000000000000000000000000000000000000000000000000000000600052603260045260246000fd5b9060005260206000200154905080876000018481548110611b1d577f4e487b7100000000000000000000000000000000000000000000000000000000600052603260045260246000fd5b90600052602060002001819055508387600101600083815260200190815260200160002081905550505b85600001805480611b81577f4e487b7100000000000000000000000000000000000000000000000000000000600052603160045260246000fd5b600190038181906000526020600020016000905590558560010160008681526020019081526020016000206000905560019350505050611bc2565b60009150505b92915050565b6000826000018281548110611c06577f4e487b7100000000000000000000000000000000000000000000000000000000600052603260045260246000fd5b9060005260206000200154905092915050565b600081600001805490509050919050565b600080836001016000848152602001908152602001600020541415905092915050565b6040518060800160405280606081526020016000815260200160608152602001606081525090565b828054611c8190612912565b90600052602060002090601f016020900481019282611ca35760008555611cea565b82601f10611cbc57805160ff1916838001178555611cea565b82800160010185558215611cea579182015b82811115611ce9578251825591602001919060010190611cce565b5b509050611cf79190611d1c565b5090565b60405180606001604052806000815260200160608152602001606081525090565b5b80821115611d35576000816000905550600101611d1d565b5090565b6000611d4c611d4784612692565b612661565b905082815260208101848484011115611d6457600080fd5b611d6f8482856128a6565b509392505050565b600081359050611d86816129e2565b92915050565b600081359050611d9b816129f9565b92915050565b600081359050611db081612a10565b92915050565b600082601f830112611dc757600080fd5b8135611dd7848260208601611d39565b91505092915050565b600081359050611def81612a27565b92915050565b600060208284031215611e0757600080fd5b6000611e1584828501611d77565b91505092915050565b600060208284031215611e3057600080fd5b6000611e3e84828501611d8c565b91505092915050565b60008060408385031215611e5a57600080fd5b6000611e6885828601611d8c565b9250506020611e7985828601611d77565b9150509250929050565b60008060408385031215611e9657600080fd5b6000611ea485828601611d8c565b9250506020611eb585828601611de0565b9150509250929050565b600060208284031215611ed157600080fd5b6000611edf84828501611da1565b91505092915050565b60008060408385031215611efb57600080fd5b600083013567ffffffffffffffff811115611f1557600080fd5b611f2185828601611db6565b925050602083013567ffffffffffffffff811115611f3e57600080fd5b611f4a85828601611db6565b9150509250929050565b60008060008060808587031215611f6a57600080fd5b600085013567ffffffffffffffff811115611f8457600080fd5b611f9087828801611db6565b945050602085013567ffffffffffffffff811115611fad57600080fd5b611fb987828801611db6565b935050604085013567ffffffffffffffff811115611fd657600080fd5b611fe287828801611db6565b925050606085013567ffffffffffffffff811115611fff57600080fd5b61200b87828801611db6565b91505092959194509250565b60006020828403121561202957600080fd5b600061203784828501611de0565b91505092915050565b60008060006060848603121561205557600080fd5b600061206386828701611de0565b935050602084013567ffffffffffffffff81111561208057600080fd5b61208c86828701611db6565b925050604084013567ffffffffffffffff8111156120a957600080fd5b6120b586828701611db6565b9150509250925092565b60006120cb83836123b3565b905092915050565b6120dc81612828565b82525050565b60006120ed826126d2565b6120f781856126f5565b935083602082028501612109856126c2565b8060005b85811015612145578484038952815161212685826120bf565b9450612131836126e8565b925060208a0199505060018101905061210d565b50829750879550505050505092915050565b6000612162826126d2565b61216c8185612706565b93508360208202850161217e856126c2565b8060005b858110156121ba578484038952815161219b85826120bf565b94506121a6836126e8565b925060208a01995050600181019050612182565b50829750879550505050505092915050565b6121d58161283a565b82525050565b6121e481612846565b82525050565b60006121f5826126dd565b6121ff8185612717565b935061220f8185602086016128b5565b612218816129d1565b840191505092915050565b600061222e826126dd565b6122388185612728565b93506122488185602086016128b5565b612251816129d1565b840191505092915050565b6000612267826126dd565b6122718185612739565b93506122818185602086016128b5565b80840191505092915050565b600061229a602083612728565b91507f537472696e67733a20686578206c656e67746820696e73756666696369656e746000830152602082019050919050565b60006122da601783612739565b91507f416363657373436f6e74726f6c3a206163636f756e74200000000000000000006000830152601782019050919050565b600061231a601183612739565b91507f206973206d697373696e6720726f6c65200000000000000000000000000000006000830152601182019050919050565b600061235a602f83612728565b91507f416363657373436f6e74726f6c3a2063616e206f6e6c792072656e6f756e636560008301527f20726f6c657320666f722073656c6600000000000000000000000000000000006020830152604082019050919050565b60006060830160008301516123cb600086018261247b565b50602083015184820360208601526123e382826121ea565b915050604083015184820360408601526123fd82826121ea565b9150508091505092915050565b6000608083016000830151848203600086015261242782826121ea565b915050602083015161243c602086018261247b565b506040830151848203604086015261245482826121ea565b9150506060830151848203606086015261246e82826120e2565b9150508091505092915050565b6124848161289c565b82525050565b6124938161289c565b82525050565b60006124a4826122cd565b91506124b0828561225c565b91506124bb8261230d565b91506124c7828461225c565b91508190509392505050565b60006020820190506124e860008301846120d3565b92915050565b600060208201905081810360008301526125088184612157565b905092915050565b600060208201905061252560008301846121cc565b92915050565b600060208201905061254060008301846121db565b92915050565b600060208201905081810360008301526125608184612223565b905092915050565b600060408201905081810360008301526125828185612223565b905081810360208301526125968184612223565b90509392505050565b600060608201905081810360008301526125b98186612223565b90506125c8602083018561248a565b81810360408301526125da8184612223565b9050949350505050565b600060208201905081810360008301526125fd8161228d565b9050919050565b6000602082019050818103600083015261261d8161234d565b9050919050565b6000602082019050818103600083015261263e818461240a565b905092915050565b600060208201905061265b600083018461248a565b92915050565b6000604051905081810181811067ffffffffffffffff82111715612688576126876129a2565b5b8060405250919050565b600067ffffffffffffffff8211156126ad576126ac6129a2565b5b601f19601f8301169050602081019050919050565b6000819050602082019050919050565b600081519050919050565b600081519050919050565b6000602082019050919050565b600082825260208201905092915050565b600082825260208201905092915050565b600082825260208201905092915050565b600082825260208201905092915050565b600081905092915050565b600061274f8261289c565b915061275a8361289c565b9250827fffffffffffffffffffffffffffffffffffffffffffffffffffffffffffffffff0382111561278f5761278e612944565b5b828201905092915050565b60006127a58261289c565b91506127b08361289c565b9250817fffffffffffffffffffffffffffffffffffffffffffffffffffffffffffffffff04831182151516156127e9576127e8612944565b5b828202905092915050565b60006127ff8261289c565b915061280a8361289c565b92508282101561281d5761281c612944565b5b828203905092915050565b60006128338261287c565b9050919050565b60008115159050919050565b6000819050919050565b60007fffffffff0000000000000000000000000000000000000000000000000000000082169050919050565b600073ffffffffffffffffffffffffffffffffffffffff82169050919050565b6000819050919050565b82818337600083830152505050565b60005b838110156128d35780820151818401526020810190506128b8565b838111156128e2576000848401525b50505050565b60006128f38261289c565b9150600082141561290757612906612944565b5b600182039050919050565b6000600282049050600182168061292a57607f821691505b6020821081141561293e5761293d612973565b5b50919050565b7f4e487b7100000000000000000000000000000000000000000000000000000000600052601160045260246000fd5b7f4e487b7100000000000000000000000000000000000000000000000000000000600052602260045260246000fd5b7f4e487b7100000000000000000000000000000000000000000000000000000000600052604160045260246000fd5b6000601f19601f8301169050919050565b6129eb81612828565b81146129f657600080fd5b50565b612a0281612846565b8114612a0d57600080fd5b50565b612a1981612850565b8114612a2457600080fd5b50565b612a308161289c565b8114612a3b57600080fd5b5056fea26469706673582212208a3f63514212ca9173fb5245627c824d1ecd5bf91216562c9cc10f1b9d826f5664736f6c63430008000033",
  "immutableReferences": {},
  "source": "// SPDX-License-Identifier: MIT\npragma solidity ^0.8.0;\n\n// import \"@openzeppelin/contracts/token/ERC20/IERC20.sol\";\n// import \"@openzeppelin/contracts/access/Ownable.sol\";\nimport \"@openzeppelin/contracts/utils/Counters.sol\";\nimport \"@openzeppelin/contracts/access/AccessControlEnumerable.sol\";\n\ncontract Main is AccessControlEnumerable {\n    using Counters for Counters.Counter;\n    struct Action {\n        uint256 time;\n        string location;\n        string ev;\n    }\n\n    struct User {\n        string name;\n        string describe;\n    }\n\n    struct Commodity {\n        string name;\n        uint256 produce_time;\n        string describe;\n        Action[] deliver_chain;\n    }\n\n    mapping(address => User) public users;\n    mapping(uint256 => Commodity) public commodities;\n\n    bytes32 constant DELIVER = keccak256(\"DELIVER\");\n    bytes32 constant SELLOR = keccak256(\"SELLOR\");\n    bytes32 constant PRODUCER = keccak256(\"PRODUCER\");\n\n    Counters.Counter public counter;\n\n    constructor() {\n        _setupRole(DEFAULT_ADMIN_ROLE, msg.sender);\n    }\n\n    function setDeliver(address target) public onlyRole(DEFAULT_ADMIN_ROLE) {\n        grantRole(DELIVER, target);\n    }\n\n    function setSellor(address target) public onlyRole(DEFAULT_ADMIN_ROLE) {\n        grantRole(SELLOR, target);\n    }\n\n    function setProducer(address target) public onlyRole(DEFAULT_ADMIN_ROLE) {\n        grantRole(PRODUCER, target);\n    }\n\n    function register(string memory _name, string memory _describe) public returns (address) {\n        users[msg.sender].name = _name;\n        users[msg.sender].describe = _describe;\n\n        return msg.sender;\n    }\n\n    function produce(string memory name, string memory describe, string memory loc, string memory ev) public onlyRole(PRODUCER) returns (uint256) {\n        uint256 id = counter.current();\n\n        Commodity storage comm = commodities[id];\n        comm.name = name;\n        comm.produce_time = block.timestamp;\n        comm.describe = describe;\n\n        Action[] storage actions = comm.deliver_chain;\n        actions.push(Action(block.timestamp, loc, ev));\n\n        counter.increment();\n\n        return id;\n    }\n\n    function deliver(uint256 id, string memory location, string memory ev) public onlyRole(DELIVER) {\n        Action memory action;\n        action.time = block.timestamp;\n        action.location = location;\n        action.ev = ev;\n\n        Commodity storage commodity = commodities[id];\n        commodity.deliver_chain.push(action);\n    }\n\n    function sell(uint256 id, string memory loc, string memory ev) public onlyRole(SELLOR) {\n        Commodity storage commodity = commodities[id];\n        Action memory action = Action(block.timestamp, loc, ev);\n        commodity.deliver_chain.push(action);\n    }\n\n    function getCommodity(uint256 id) public view returns (Commodity memory) {\n        return commodities[id];\n    }\n\n    function getDeliverChain(uint256 id) public view returns (Action[] memory) {\n        return commodities[id].deliver_chain;\n    }\n}",
  "sourcePath": "/root/contracts/SourceTraceSolidity/contracts/Main.sol",
  "compiler": {
    "name": "solc",
    "version": "0.8.0+commit.c7dfd78e.Emscripten.clang"
  },
  "schemaVersion": "3.3.4",
  "updatedAt": "2021-11-18T10:30:18.530Z",
  "devdoc": {
    "kind": "dev",
    "methods": {
      "getRoleAdmin(bytes32)": {
        "details": "Returns the admin role that controls `role`. See {grantRole} and {revokeRole}. To change a role's admin, use {_setRoleAdmin}."
      },
      "getRoleMember(bytes32,uint256)": {
        "details": "Returns one of the accounts that have `role`. `index` must be a value between 0 and {getRoleMemberCount}, non-inclusive. Role bearers are not sorted in any particular way, and their ordering may change at any point. WARNING: When using {getRoleMember} and {getRoleMemberCount}, make sure you perform all queries on the same block. See the following https://forum.openzeppelin.com/t/iterating-over-elements-on-enumerableset-in-openzeppelin-contracts/2296[forum post] for more information."
      },
      "getRoleMemberCount(bytes32)": {
        "details": "Returns the number of accounts that have `role`. Can be used together with {getRoleMember} to enumerate all bearers of a role."
      },
      "grantRole(bytes32,address)": {
        "details": "Overload {grantRole} to track enumerable memberships"
      },
      "hasRole(bytes32,address)": {
        "details": "Returns `true` if `account` has been granted `role`."
      },
      "renounceRole(bytes32,address)": {
        "details": "Overload {renounceRole} to track enumerable memberships"
      },
      "revokeRole(bytes32,address)": {
        "details": "Overload {revokeRole} to track enumerable memberships"
      },
      "supportsInterface(bytes4)": {
        "details": "See {IERC165-supportsInterface}."
      }
    },
    "version": 1
  },
  "userdoc": {
    "kind": "user",
    "methods": {},
    "version": 1
  }
}