{
  "contractName": "Main",
  "abi": [
    {
      "inputs": [
        {
          "internalType": "address",
          "name": "owner",
          "type": "address"
        }
      ],
      "stateMutability": "nonpayable",
      "type": "constructor"
    },
    {
      "anonymous": false,
      "inputs": [
        {
          "indexed": true,
          "internalType": "bytes32",
          "name": "role",
          "type": "bytes32"
        },
        {
          "indexed": true,
          "internalType": "bytes32",
          "name": "previousAdminRole",
          "type": "bytes32"
        },
        {
          "indexed": true,
          "internalType": "bytes32",
          "name": "newAdminRole",
          "type": "bytes32"
        }
      ],
      "name": "RoleAdminChanged",
      "type": "event"
    },
    {
      "anonymous": false,
      "inputs": [
        {
          "indexed": true,
          "internalType": "bytes32",
          "name": "role",
          "type": "bytes32"
        },
        {
          "indexed": true,
          "internalType": "address",
          "name": "account",
          "type": "address"
        },
        {
          "indexed": true,
          "internalType": "address",
          "name": "sender",
          "type": "address"
        }
      ],
      "name": "RoleGranted",
      "type": "event"
    },
    {
      "anonymous": false,
      "inputs": [
        {
          "indexed": true,
          "internalType": "bytes32",
          "name": "role",
          "type": "bytes32"
        },
        {
          "indexed": true,
          "internalType": "address",
          "name": "account",
          "type": "address"
        },
        {
          "indexed": true,
          "internalType": "address",
          "name": "sender",
          "type": "address"
        }
      ],
      "name": "RoleRevoked",
      "type": "event"
    },
    {
      "inputs": [],
      "name": "DEFAULT_ADMIN_ROLE",
      "outputs": [
        {
          "internalType": "bytes32",
          "name": "",
          "type": "bytes32"
        }
      ],
      "stateMutability": "view",
      "type": "function"
    },
    {
      "inputs": [
        {
          "internalType": "bytes32",
          "name": "role",
          "type": "bytes32"
        }
      ],
      "name": "getRoleAdmin",
      "outputs": [
        {
          "internalType": "bytes32",
          "name": "",
          "type": "bytes32"
        }
      ],
      "stateMutability": "view",
      "type": "function"
    },
    {
      "inputs": [
        {
          "internalType": "bytes32",
          "name": "role",
          "type": "bytes32"
        },
        {
          "internalType": "uint256",
          "name": "index",
          "type": "uint256"
        }
      ],
      "name": "getRoleMember",
      "outputs": [
        {
          "internalType": "address",
          "name": "",
          "type": "address"
        }
      ],
      "stateMutability": "view",
      "type": "function"
    },
    {
      "inputs": [
        {
          "internalType": "bytes32",
          "name": "role",
          "type": "bytes32"
        }
      ],
      "name": "getRoleMemberCount",
      "outputs": [
        {
          "internalType": "uint256",
          "name": "",
          "type": "uint256"
        }
      ],
      "stateMutability": "view",
      "type": "function"
    },
    {
      "inputs": [
        {
          "internalType": "bytes32",
          "name": "role",
          "type": "bytes32"
        },
        {
          "internalType": "address",
          "name": "account",
          "type": "address"
        }
      ],
      "name": "grantRole",
      "outputs": [],
      "stateMutability": "nonpayable",
      "type": "function"
    },
    {
      "inputs": [
        {
          "internalType": "bytes32",
          "name": "role",
          "type": "bytes32"
        },
        {
          "internalType": "address",
          "name": "account",
          "type": "address"
        }
      ],
      "name": "hasRole",
      "outputs": [
        {
          "internalType": "bool",
          "name": "",
          "type": "bool"
        }
      ],
      "stateMutability": "view",
      "type": "function"
    },
    {
      "inputs": [
        {
          "internalType": "bytes32",
          "name": "role",
          "type": "bytes32"
        },
        {
          "internalType": "address",
          "name": "account",
          "type": "address"
        }
      ],
      "name": "renounceRole",
      "outputs": [],
      "stateMutability": "nonpayable",
      "type": "function"
    },
    {
      "inputs": [
        {
          "internalType": "bytes32",
          "name": "role",
          "type": "bytes32"
        },
        {
          "internalType": "address",
          "name": "account",
          "type": "address"
        }
      ],
      "name": "revokeRole",
      "outputs": [],
      "stateMutability": "nonpayable",
      "type": "function"
    },
    {
      "inputs": [
        {
          "internalType": "bytes4",
          "name": "interfaceId",
          "type": "bytes4"
        }
      ],
      "name": "supportsInterface",
      "outputs": [
        {
          "internalType": "bool",
          "name": "",
          "type": "bool"
        }
      ],
      "stateMutability": "view",
      "type": "function"
    },
    {
      "inputs": [
        {
          "internalType": "address",
          "name": "target",
          "type": "address"
        }
      ],
      "name": "setDeliver",
      "outputs": [],
      "stateMutability": "nonpayable",
      "type": "function"
    },
    {
      "inputs": [
        {
          "internalType": "address",
          "name": "target",
          "type": "address"
        }
      ],
      "name": "setSellor",
      "outputs": [],
      "stateMutability": "nonpayable",
      "type": "function"
    },
    {
      "inputs": [
        {
          "internalType": "address",
          "name": "target",
          "type": "address"
        }
      ],
      "name": "setProducer",
      "outputs": [],
      "stateMutability": "nonpayable",
      "type": "function"
    },
    {
      "inputs": [
        {
          "internalType": "string",
          "name": "_name",
          "type": "string"
        },
        {
          "internalType": "string",
          "name": "_describe",
          "type": "string"
        }
      ],
      "name": "register",
      "outputs": [
        {
          "internalType": "address",
          "name": "",
          "type": "address"
        }
      ],
      "stateMutability": "nonpayable",
      "type": "function"
    },
    {
      "inputs": [
        {
          "internalType": "string",
          "name": "name",
          "type": "string"
        },
        {
          "internalType": "string",
          "name": "describe",
          "type": "string"
        },
        {
          "internalType": "string",
          "name": "loc",
          "type": "string"
        },
        {
          "internalType": "string",
          "name": "ev",
          "type": "string"
        }
      ],
      "name": "produce",
      "outputs": [
        {
          "internalType": "uint256",
          "name": "",
          "type": "uint256"
        }
      ],
      "stateMutability": "nonpayable",
      "type": "function"
    },
    {
      "inputs": [
        {
          "internalType": "uint256",
          "name": "id",
          "type": "uint256"
        },
        {
          "internalType": "string",
          "name": "location",
          "type": "string"
        },
        {
          "internalType": "string",
          "name": "ev",
          "type": "string"
        }
      ],
      "name": "deliver",
      "outputs": [],
      "stateMutability": "nonpayable",
      "type": "function"
    },
    {
      "inputs": [
        {
          "internalType": "uint256",
          "name": "id",
          "type": "uint256"
        },
        {
          "internalType": "string",
          "name": "loc",
          "type": "string"
        },
        {
          "internalType": "string",
          "name": "ev",
          "type": "string"
        }
      ],
      "name": "sell",
      "outputs": [],
      "stateMutability": "nonpayable",
      "type": "function"
    },
    {
      "inputs": [
        {
          "internalType": "uint256",
          "name": "id",
          "type": "uint256"
        }
      ],
      "name": "getCommodity",
      "outputs": [
        {
          "components": [
            {
              "internalType": "string",
              "name": "name",
              "type": "string"
            },
            {
              "internalType": "uint256",
              "name": "produce_time",
              "type": "uint256"
            },
            {
              "internalType": "string",
              "name": "describe",
              "type": "string"
            },
            {
              "components": [
                {
                  "internalType": "uint256",
                  "name": "time",
                  "type": "uint256"
                },
                {
                  "internalType": "string",
                  "name": "location",
                  "type": "string"
                },
                {
                  "internalType": "string",
                  "name": "ev",
                  "type": "string"
                }
              ],
              "internalType": "struct Main.Action[]",
              "name": "deliver_chain",
              "type": "tuple[]"
            }
          ],
          "internalType": "struct Main.Commodity",
          "name": "",
          "type": "tuple"
        }
      ],
      "stateMutability": "view",
      "type": "function"
    },
    {
      "inputs": [
        {
          "internalType": "uint256",
          "name": "id",
          "type": "uint256"
        }
      ],
      "name": "getDeliverChain",
      "outputs": [
        {
          "components": [
            {
              "internalType": "uint256",
              "name": "time",
              "type": "uint256"
            },
            {
              "internalType": "string",
              "name": "location",
              "type": "string"
            },
            {
              "internalType": "string",
              "name": "ev",
              "type": "string"
            }
          ],
          "internalType": "struct Main.Action[]",
          "name": "",
          "type": "tuple[]"
        }
      ],
      "stateMutability": "view",
      "type": "function"
    }
  ],
  "bytecode": "0x60806040523480156200001157600080fd5b5060405162002a6638038062002a66833981810160405281019062000037919062000300565b6200004c6000801b826200005360201b60201c565b506200037a565b6200006a82826200009b60201b62000edc1760201c565b620000968160016000858152602001908152602001600020620000b160201b62000eea1790919060201c565b505050565b620000ad8282620000e960201b60201c565b5050565b6000620000e1836000018373ffffffffffffffffffffffffffffffffffffffff1660001b620001da60201b60201c565b905092915050565b620000fb82826200025460201b60201c565b620001d657600160008084815260200190815260200160002060000160008373ffffffffffffffffffffffffffffffffffffffff1673ffffffffffffffffffffffffffffffffffffffff16815260200190815260200160002060006101000a81548160ff0219169083151502179055506200017b620002be60201b60201c565b73ffffffffffffffffffffffffffffffffffffffff168173ffffffffffffffffffffffffffffffffffffffff16837f2f8788117e7eff1d82e926ec794901d17c78024a50270940304540a733656f0d60405160405180910390a45b5050565b6000620001ee8383620002c660201b60201c565b620002495782600001829080600181540180825580915050600190039060005260206000200160009091909190915055826000018054905083600101600084815260200190815260200160002081905550600190506200024e565b600090505b92915050565b600080600084815260200190815260200160002060000160008373ffffffffffffffffffffffffffffffffffffffff1673ffffffffffffffffffffffffffffffffffffffff16815260200190815260200160002060009054906101000a900460ff16905092915050565b600033905090565b600080836001016000848152602001908152602001600020541415905092915050565b600081519050620002fa8162000360565b92915050565b6000602082840312156200031357600080fd5b60006200032384828501620002e9565b91505092915050565b6000620003398262000340565b9050919050565b600073ffffffffffffffffffffffffffffffffffffffff82169050919050565b6200036b816200032c565b81146200037757600080fd5b50565b6126dc806200038a6000396000f3fe608060405234801561001057600080fd5b50600436106101165760003560e01c806340c8cfee116100a2578063a217fddf11610071578063a217fddf14610327578063ca15c87314610345578063d547741f14610375578063eb12be9c14610391578063f10fc8c6146103ad57610116565b806340c8cfee1461028f57806353169323146102ab5780639010d07c146102c757806391d14854146102f757610116565b80632f63f34f116100e95780632f63f34f146101b35780632f6d28c1146101e357806335178b961461021357806336568abe146102435780633ffbd47f1461025f57610116565b806301ffc9a71461011b578063248a9ca31461014b5780632b38bafc1461017b5780632f2ff15d14610197575b600080fd5b61013560048036038101906101309190611ba3565b6103c9565b60405161014291906121f4565b60405180910390f35b61016560048036038101906101609190611b02565b610443565b604051610172919061220f565b60405180910390f35b61019560048036038101906101909190611ad9565b610462565b005b6101b160048036038101906101ac9190611b2b565b6104a5565b005b6101cd60048036038101906101c89190611cfb565b6104d9565b6040516101da919061228c565b60405180910390f35b6101fd60048036038101906101f89190611cfb565b6107c1565b60405161020a91906121d2565b60405180910390f35b61022d60048036038101906102289190611c38565b610964565b60405161023a91906122ae565b60405180910390f35b61025d60048036038101906102589190611b2b565b610aa4565b005b61027960048036038101906102749190611bcc565b610ad8565b60405161028691906121b7565b60405180910390f35b6102a960048036038101906102a49190611ad9565b610b91565b005b6102c560048036038101906102c09190611ad9565b610bd4565b005b6102e160048036038101906102dc9190611b67565b610c17565b6040516102ee91906121b7565b60405180910390f35b610311600480360381019061030c9190611b2b565b610c46565b60405161031e91906121f4565b60405180910390f35b61032f610cb0565b60405161033c919061220f565b60405180910390f35b61035f600480360381019061035a9190611b02565b610cb7565b60405161036c91906122ae565b60405180910390f35b61038f600480360381019061038a9190611b2b565b610cdb565b005b6103ab60048036038101906103a69190611d24565b610d0f565b005b6103c760048036038101906103c29190611d24565b610df8565b005b60007f5a05180f000000000000000000000000000000000000000000000000000000007bffffffffffffffffffffffffffffffffffffffffffffffffffffffff1916827bffffffffffffffffffffffffffffffffffffffffffffffffffffffff1916148061043c575061043b82610f1a565b5b9050919050565b6000806000838152602001908152602001600020600101549050919050565b6000801b61047781610472610f94565b610f9c565b6104a17fa26228957b4ff1ee8d2f4555d58f130924b7939446a6af38afd42a510a51fbb4836104a5565b5050565b6104af8282611039565b6104d48160016000858152602001908152602001600020610eea90919063ffffffff16565b505050565b6104e1611931565b6003600083815260200190815260200160002060405180608001604052908160008201805461050f9061257a565b80601f016020809104026020016040519081016040528092919081815260200182805461053b9061257a565b80156105885780601f1061055d57610100808354040283529160200191610588565b820191906000526020600020905b81548152906001019060200180831161056b57829003601f168201915b50505050508152602001600182015481526020016002820180546105ab9061257a565b80601f01602080910402602001604051908101604052809291908181526020018280546105d79061257a565b80156106245780601f106105f957610100808354040283529160200191610624565b820191906000526020600020905b81548152906001019060200180831161060757829003601f168201915b5050505050815260200160038201805480602002602001604051908101604052809291908181526020016000905b828210156107b257838290600052602060002090600302016040518060600160405290816000820154815260200160018201805461068f9061257a565b80601f01602080910402602001604051908101604052809291908181526020018280546106bb9061257a565b80156107085780601f106106dd57610100808354040283529160200191610708565b820191906000526020600020905b8154815290600101906020018083116106eb57829003601f168201915b505050505081526020016002820180546107219061257a565b80601f016020809104026020016040519081016040528092919081815260200182805461074d9061257a565b801561079a5780601f1061076f5761010080835404028352916020019161079a565b820191906000526020600020905b81548152906001019060200180831161077d57829003601f168201915b50505050508152505081526020019060010190610652565b50505050815250509050919050565b606060036000838152602001908152602001600020600301805480602002602001604051908101604052809291908181526020016000905b828210156109595783829060005260206000209060030201604051806060016040529081600082015481526020016001820180546108369061257a565b80601f01602080910402602001604051908101604052809291908181526020018280546108629061257a565b80156108af5780601f10610884576101008083540402835291602001916108af565b820191906000526020600020905b81548152906001019060200180831161089257829003601f168201915b505050505081526020016002820180546108c89061257a565b80601f01602080910402602001604051908101604052809291908181526020018280546108f49061257a565b80156109415780601f1061091657610100808354040283529160200191610941565b820191906000526020600020905b81548152906001019060200180831161092457829003601f168201915b505050505081525050815260200190600101906107f9565b505050509050919050565b60007fa26228957b4ff1ee8d2f4555d58f130924b7939446a6af38afd42a510a51fbb461099881610993610f94565b610f9c565b60006109a46004611062565b90506000600360008381526020019081526020016000209050878160000190805190602001906109d5929190611959565b50428160010181905550868160020190805190602001906109f7929190611959565b506000816003019050806040518060600160405280428152602001898152602001888152509080600181540180825580915050600190039060005260206000209060030201600090919091909150600082015181600001556020820151816001019080519060200190610a6b929190611959565b506040820151816002019080519060200190610a88929190611959565b505050610a956004611070565b82945050505050949350505050565b610aae8282611086565b610ad3816001600085815260200190815260200160002061110990919063ffffffff16565b505050565b600082600260003373ffffffffffffffffffffffffffffffffffffffff1673ffffffffffffffffffffffffffffffffffffffff1681526020019081526020016000206000019080519060200190610b30929190611959565b5081600260003373ffffffffffffffffffffffffffffffffffffffff1673ffffffffffffffffffffffffffffffffffffffff1681526020019081526020016000206001019080519060200190610b87929190611959565b5033905092915050565b6000801b610ba681610ba1610f94565b610f9c565b610bd07f07440d959ac4d642cef9f21d2b26dcb48906afabe6d00cd411f69940bfc1db21836104a5565b5050565b6000801b610be981610be4610f94565b610f9c565b610c137fd0224718268e61b07e9f4cc598a9563984f0a026b8e2f81da878a8dded7109eb836104a5565b5050565b6000610c3e826001600086815260200190815260200160002061113990919063ffffffff16565b905092915050565b600080600084815260200190815260200160002060000160008373ffffffffffffffffffffffffffffffffffffffff1673ffffffffffffffffffffffffffffffffffffffff16815260200190815260200160002060009054906101000a900460ff16905092915050565b6000801b81565b6000610cd460016000848152602001908152602001600020611153565b9050919050565b610ce58282611168565b610d0a816001600085815260200190815260200160002061110990919063ffffffff16565b505050565b7f07440d959ac4d642cef9f21d2b26dcb48906afabe6d00cd411f69940bfc1db21610d4181610d3c610f94565b610f9c565b610d496119df565b42816000018181525050838160200181905250828160400181905250600060036000878152602001908152602001600020905080600301829080600181540180825580915050600190039060005260206000209060030201600090919091909150600082015181600001556020820151816001019080519060200190610dd0929190611959565b506040820151816002019080519060200190610ded929190611959565b505050505050505050565b7fd0224718268e61b07e9f4cc598a9563984f0a026b8e2f81da878a8dded7109eb610e2a81610e25610f94565b610f9c565b60006003600086815260200190815260200160002090506000604051806060016040528042815260200186815260200185815250905081600301819080600181540180825580915050600190039060005260206000209060030201600090919091909150600082015181600001556020820151816001019080519060200190610eb4929190611959565b506040820151816002019080519060200190610ed1929190611959565b505050505050505050565b610ee68282611191565b5050565b6000610f12836000018373ffffffffffffffffffffffffffffffffffffffff1660001b611271565b905092915050565b60007f7965db0b000000000000000000000000000000000000000000000000000000007bffffffffffffffffffffffffffffffffffffffffffffffffffffffff1916827bffffffffffffffffffffffffffffffffffffffffffffffffffffffff19161480610f8d5750610f8c826112e1565b5b9050919050565b600033905090565b610fa68282610c46565b61103557610fcb8173ffffffffffffffffffffffffffffffffffffffff16601461134b565b610fd98360001c602061134b565b604051602001610fea92919061217d565b6040516020818303038152906040526040517f08c379a000000000000000000000000000000000000000000000000000000000815260040161102c919061222a565b60405180910390fd5b5050565b61104282610443565b6110538161104e610f94565b610f9c565b61105d8383611191565b505050565b600081600001549050919050565b6001816000016000828254019250508190555050565b61108e610f94565b73ffffffffffffffffffffffffffffffffffffffff168173ffffffffffffffffffffffffffffffffffffffff16146110fb576040517f08c379a00000000000000000000000000000000000000000000000000000000081526004016110f29061226c565b60405180910390fd5b6111058282611645565b5050565b6000611131836000018373ffffffffffffffffffffffffffffffffffffffff1660001b611726565b905092915050565b600061114883600001836118ac565b60001c905092915050565b6000611161826000016118fd565b9050919050565b61117182610443565b6111828161117d610f94565b610f9c565b61118c8383611645565b505050565b61119b8282610c46565b61126d57600160008084815260200190815260200160002060000160008373ffffffffffffffffffffffffffffffffffffffff1673ffffffffffffffffffffffffffffffffffffffff16815260200190815260200160002060006101000a81548160ff021916908315150217905550611212610f94565b73ffffffffffffffffffffffffffffffffffffffff168173ffffffffffffffffffffffffffffffffffffffff16837f2f8788117e7eff1d82e926ec794901d17c78024a50270940304540a733656f0d60405160405180910390a45b5050565b600061127d838361190e565b6112d65782600001829080600181540180825580915050600190039060005260206000200160009091909190915055826000018054905083600101600084815260200190815260200160002081905550600190506112db565b600090505b92915050565b60007f01ffc9a7000000000000000000000000000000000000000000000000000000007bffffffffffffffffffffffffffffffffffffffffffffffffffffffff1916827bffffffffffffffffffffffffffffffffffffffffffffffffffffffff1916149050919050565b60606000600283600261135e9190612402565b61136891906123ac565b67ffffffffffffffff8111156113a7577f4e487b7100000000000000000000000000000000000000000000000000000000600052604160045260246000fd5b6040519080825280601f01601f1916602001820160405280156113d95781602001600182028036833780820191505090505b5090507f300000000000000000000000000000000000000000000000000000000000000081600081518110611437577f4e487b7100000000000000000000000000000000000000000000000000000000600052603260045260246000fd5b60200101907effffffffffffffffffffffffffffffffffffffffffffffffffffffffffffff1916908160001a9053507f7800000000000000000000000000000000000000000000000000000000000000816001815181106114c1577f4e487b7100000000000000000000000000000000000000000000000000000000600052603260045260246000fd5b60200101907effffffffffffffffffffffffffffffffffffffffffffffffffffffffffffff1916908160001a905350600060018460026115019190612402565b61150b91906123ac565b90505b60018111156115f7577f3031323334353637383961626364656600000000000000000000000000000000600f861660108110611573577f4e487b7100000000000000000000000000000000000000000000000000000000600052603260045260246000fd5b1a60f81b8282815181106115b0577f4e487b7100000000000000000000000000000000000000000000000000000000600052603260045260246000fd5b60200101907effffffffffffffffffffffffffffffffffffffffffffffffffffffffffffff1916908160001a905350600485901c9450806115f090612550565b905061150e565b506000841461163b576040517f08c379a00000000000000000000000000000000000000000000000000000000081526004016116329061224c565b60405180910390fd5b8091505092915050565b61164f8282610c46565b1561172257600080600084815260200190815260200160002060000160008373ffffffffffffffffffffffffffffffffffffffff1673ffffffffffffffffffffffffffffffffffffffff16815260200190815260200160002060006101000a81548160ff0219169083151502179055506116c7610f94565b73ffffffffffffffffffffffffffffffffffffffff168173ffffffffffffffffffffffffffffffffffffffff16837ff6391f5c32d9c69d2a47ea670b442974b53935d1edc7fd64eb21e047a839171b60405160405180910390a45b5050565b600080836001016000848152602001908152602001600020549050600081146118a0576000600182611758919061245c565b9050600060018660000180549050611770919061245c565b905081811461182b5760008660000182815481106117b7577f4e487b7100000000000000000000000000000000000000000000000000000000600052603260045260246000fd5b9060005260206000200154905080876000018481548110611801577f4e487b7100000000000000000000000000000000000000000000000000000000600052603260045260246000fd5b90600052602060002001819055508387600101600083815260200190815260200160002081905550505b85600001805480611865577f4e487b7100000000000000000000000000000000000000000000000000000000600052603160045260246000fd5b6001900381819060005260206000200160009055905585600101600086815260200190815260200160002060009055600193505050506118a6565b60009150505b92915050565b60008260000182815481106118ea577f4e487b7100000000000000000000000000000000000000000000000000000000600052603260045260246000fd5b9060005260206000200154905092915050565b600081600001805490509050919050565b600080836001016000848152602001908152602001600020541415905092915050565b6040518060800160405280606081526020016000815260200160608152602001606081525090565b8280546119659061257a565b90600052602060002090601f01602090048101928261198757600085556119ce565b82601f106119a057805160ff19168380011785556119ce565b828001600101855582156119ce579182015b828111156119cd5782518255916020019190600101906119b2565b5b5090506119db9190611a00565b5090565b60405180606001604052806000815260200160608152602001606081525090565b5b80821115611a19576000816000905550600101611a01565b5090565b6000611a30611a2b846122fa565b6122c9565b905082815260208101848484011115611a4857600080fd5b611a5384828561250e565b509392505050565b600081359050611a6a8161264a565b92915050565b600081359050611a7f81612661565b92915050565b600081359050611a9481612678565b92915050565b600082601f830112611aab57600080fd5b8135611abb848260208601611a1d565b91505092915050565b600081359050611ad38161268f565b92915050565b600060208284031215611aeb57600080fd5b6000611af984828501611a5b565b91505092915050565b600060208284031215611b1457600080fd5b6000611b2284828501611a70565b91505092915050565b60008060408385031215611b3e57600080fd5b6000611b4c85828601611a70565b9250506020611b5d85828601611a5b565b9150509250929050565b60008060408385031215611b7a57600080fd5b6000611b8885828601611a70565b9250506020611b9985828601611ac4565b9150509250929050565b600060208284031215611bb557600080fd5b6000611bc384828501611a85565b91505092915050565b60008060408385031215611bdf57600080fd5b600083013567ffffffffffffffff811115611bf957600080fd5b611c0585828601611a9a565b925050602083013567ffffffffffffffff811115611c2257600080fd5b611c2e85828601611a9a565b9150509250929050565b60008060008060808587031215611c4e57600080fd5b600085013567ffffffffffffffff811115611c6857600080fd5b611c7487828801611a9a565b945050602085013567ffffffffffffffff811115611c9157600080fd5b611c9d87828801611a9a565b935050604085013567ffffffffffffffff811115611cba57600080fd5b611cc687828801611a9a565b925050606085013567ffffffffffffffff811115611ce357600080fd5b611cef87828801611a9a565b91505092959194509250565b600060208284031215611d0d57600080fd5b6000611d1b84828501611ac4565b91505092915050565b600080600060608486031215611d3957600080fd5b6000611d4786828701611ac4565b935050602084013567ffffffffffffffff811115611d6457600080fd5b611d7086828701611a9a565b925050604084013567ffffffffffffffff811115611d8d57600080fd5b611d9986828701611a9a565b9150509250925092565b6000611daf8383612097565b905092915050565b611dc081612490565b82525050565b6000611dd18261233a565b611ddb818561235d565b935083602082028501611ded8561232a565b8060005b85811015611e295784840389528151611e0a8582611da3565b9450611e1583612350565b925060208a01995050600181019050611df1565b50829750879550505050505092915050565b6000611e468261233a565b611e50818561236e565b935083602082028501611e628561232a565b8060005b85811015611e9e5784840389528151611e7f8582611da3565b9450611e8a83612350565b925060208a01995050600181019050611e66565b50829750879550505050505092915050565b611eb9816124a2565b82525050565b611ec8816124ae565b82525050565b6000611ed982612345565b611ee3818561237f565b9350611ef381856020860161251d565b611efc81612639565b840191505092915050565b6000611f1282612345565b611f1c8185612390565b9350611f2c81856020860161251d565b611f3581612639565b840191505092915050565b6000611f4b82612345565b611f5581856123a1565b9350611f6581856020860161251d565b80840191505092915050565b6000611f7e602083612390565b91507f537472696e67733a20686578206c656e67746820696e73756666696369656e746000830152602082019050919050565b6000611fbe6017836123a1565b91507f416363657373436f6e74726f6c3a206163636f756e74200000000000000000006000830152601782019050919050565b6000611ffe6011836123a1565b91507f206973206d697373696e6720726f6c65200000000000000000000000000000006000830152601182019050919050565b600061203e602f83612390565b91507f416363657373436f6e74726f6c3a2063616e206f6e6c792072656e6f756e636560008301527f20726f6c657320666f722073656c6600000000000000000000000000000000006020830152604082019050919050565b60006060830160008301516120af600086018261215f565b50602083015184820360208601526120c78282611ece565b915050604083015184820360408601526120e18282611ece565b9150508091505092915050565b6000608083016000830151848203600086015261210b8282611ece565b9150506020830151612120602086018261215f565b50604083015184820360408601526121388282611ece565b915050606083015184820360608601526121528282611dc6565b9150508091505092915050565b61216881612504565b82525050565b61217781612504565b82525050565b600061218882611fb1565b91506121948285611f40565b915061219f82611ff1565b91506121ab8284611f40565b91508190509392505050565b60006020820190506121cc6000830184611db7565b92915050565b600060208201905081810360008301526121ec8184611e3b565b905092915050565b60006020820190506122096000830184611eb0565b92915050565b60006020820190506122246000830184611ebf565b92915050565b600060208201905081810360008301526122448184611f07565b905092915050565b6000602082019050818103600083015261226581611f71565b9050919050565b6000602082019050818103600083015261228581612031565b9050919050565b600060208201905081810360008301526122a681846120ee565b905092915050565b60006020820190506122c3600083018461216e565b92915050565b6000604051905081810181811067ffffffffffffffff821117156122f0576122ef61260a565b5b8060405250919050565b600067ffffffffffffffff8211156123155761231461260a565b5b601f19601f8301169050602081019050919050565b6000819050602082019050919050565b600081519050919050565b600081519050919050565b6000602082019050919050565b600082825260208201905092915050565b600082825260208201905092915050565b600082825260208201905092915050565b600082825260208201905092915050565b600081905092915050565b60006123b782612504565b91506123c283612504565b9250827fffffffffffffffffffffffffffffffffffffffffffffffffffffffffffffffff038211156123f7576123f66125ac565b5b828201905092915050565b600061240d82612504565b915061241883612504565b9250817fffffffffffffffffffffffffffffffffffffffffffffffffffffffffffffffff0483118215151615612451576124506125ac565b5b828202905092915050565b600061246782612504565b915061247283612504565b925082821015612485576124846125ac565b5b828203905092915050565b600061249b826124e4565b9050919050565b60008115159050919050565b6000819050919050565b60007fffffffff0000000000000000000000000000000000000000000000000000000082169050919050565b600073ffffffffffffffffffffffffffffffffffffffff82169050919050565b6000819050919050565b82818337600083830152505050565b60005b8381101561253b578082015181840152602081019050612520565b8381111561254a576000848401525b50505050565b600061255b82612504565b9150600082141561256f5761256e6125ac565b5b600182039050919050565b6000600282049050600182168061259257607f821691505b602082108114156125a6576125a56125db565b5b50919050565b7f4e487b7100000000000000000000000000000000000000000000000000000000600052601160045260246000fd5b7f4e487b7100000000000000000000000000000000000000000000000000000000600052602260045260246000fd5b7f4e487b7100000000000000000000000000000000000000000000000000000000600052604160045260246000fd5b6000601f19601f8301169050919050565b61265381612490565b811461265e57600080fd5b50565b61266a816124ae565b811461267557600080fd5b50565b612681816124b8565b811461268c57600080fd5b50565b61269881612504565b81146126a357600080fd5b5056fea2646970667358221220cdec085e53e37ec1e211c26906859670e82aa7d77602732240a889428675d61364736f6c63430008000033",
  "immutableReferences": {},
  "source": "// SPDX-License-Identifier: MIT\npragma solidity ^0.8.0;\n\n// import \"@openzeppelin/contracts/token/ERC20/IERC20.sol\";\n// import \"@openzeppelin/contracts/access/Ownable.sol\";\nimport \"@openzeppelin/contracts/utils/Counters.sol\";\nimport \"@openzeppelin/contracts/access/AccessControlEnumerable.sol\";\n\ncontract Main is AccessControlEnumerable {\n    using Counters for Counters.Counter;\n    struct Action {\n        uint256 time;\n        string location;\n        string ev;\n    }\n\n    struct User {\n        string name;\n        string describe;\n    }\n\n    struct Commodity {\n        string name;\n        uint256 produce_time;\n        string describe;\n        Action[] deliver_chain;\n    }\n\n    mapping(address => User) users;\n    mapping(uint256 => Commodity) commodities;\n\n    bytes32 constant DELIVER = keccak256(\"DELIVER\");\n    bytes32 constant SELLOR = keccak256(\"SELLOR\");\n    bytes32 constant PRODUCER = keccak256(\"PRODUCER\");\n\n    Counters.Counter counter;\n\n    constructor(address owner) {\n        _setupRole(DEFAULT_ADMIN_ROLE, owner);\n    }\n\n    function setDeliver(address target) public onlyRole(DEFAULT_ADMIN_ROLE) {\n        grantRole(DELIVER, target);\n    }\n\n    function setSellor(address target) public onlyRole(DEFAULT_ADMIN_ROLE) {\n        grantRole(SELLOR, target);\n    }\n\n    function setProducer(address target) public onlyRole(DEFAULT_ADMIN_ROLE) {\n        grantRole(PRODUCER, target);\n    }\n\n    function register(string memory _name, string memory _describe) public returns (address) {\n        users[msg.sender].name = _name;\n        users[msg.sender].describe = _describe;\n\n        return msg.sender;\n    }\n\n    function produce(string memory name, string memory describe, string memory loc, string memory ev) public onlyRole(PRODUCER) returns (uint256) {\n        uint256 id = counter.current();\n\n        Commodity storage comm = commodities[id];\n        comm.name = name;\n        comm.produce_time = block.timestamp;\n        comm.describe = describe;\n\n        Action[] storage actions = comm.deliver_chain;\n        actions.push(Action(block.timestamp, loc, ev));\n\n        counter.increment();\n\n        return id;\n    }\n\n    function deliver(uint256 id, string memory location, string memory ev) public onlyRole(DELIVER) {\n        Action memory action;\n        action.time = block.timestamp;\n        action.location = location;\n        action.ev = ev;\n\n        Commodity storage commodity = commodities[id];\n        commodity.deliver_chain.push(action);\n    }\n\n    function sell(uint256 id, string memory loc, string memory ev) public onlyRole(SELLOR) {\n        Commodity storage commodity = commodities[id];\n        Action memory action = Action(block.timestamp, loc, ev);\n        commodity.deliver_chain.push(action);\n    }\n\n    function getCommodity(uint256 id) public view returns (Commodity memory) {\n        return commodities[id];\n    }\n\n    function getDeliverChain(uint256 id) public view returns (Action[] memory) {\n        return commodities[id].deliver_chain;\n    }\n}",
  "sourcePath": "/home/chan/Conflux Studio/SourceTrace/contracts/Main.sol",
  "compiler": {
    "name": "solc",
    "version": "0.8.0+commit.c7dfd78e.Emscripten.clang"
  },
  "schemaVersion": "3.3.4",
  "updatedAt": "2021-11-16T06:19:02.670Z",
  "devdoc": {
    "kind": "dev",
    "methods": {
      "getRoleAdmin(bytes32)": {
        "details": "Returns the admin role that controls `role`. See {grantRole} and {revokeRole}. To change a role's admin, use {_setRoleAdmin}."
      },
      "getRoleMember(bytes32,uint256)": {
        "details": "Returns one of the accounts that have `role`. `index` must be a value between 0 and {getRoleMemberCount}, non-inclusive. Role bearers are not sorted in any particular way, and their ordering may change at any point. WARNING: When using {getRoleMember} and {getRoleMemberCount}, make sure you perform all queries on the same block. See the following https://forum.openzeppelin.com/t/iterating-over-elements-on-enumerableset-in-openzeppelin-contracts/2296[forum post] for more information."
      },
      "getRoleMemberCount(bytes32)": {
        "details": "Returns the number of accounts that have `role`. Can be used together with {getRoleMember} to enumerate all bearers of a role."
      },
      "grantRole(bytes32,address)": {
        "details": "Overload {grantRole} to track enumerable memberships"
      },
      "hasRole(bytes32,address)": {
        "details": "Returns `true` if `account` has been granted `role`."
      },
      "renounceRole(bytes32,address)": {
        "details": "Overload {renounceRole} to track enumerable memberships"
      },
      "revokeRole(bytes32,address)": {
        "details": "Overload {revokeRole} to track enumerable memberships"
      },
      "supportsInterface(bytes4)": {
        "details": "See {IERC165-supportsInterface}."
      }
    },
    "version": 1
  },
  "userdoc": {
    "kind": "user",
    "methods": {},
    "version": 1
  }
}